:0903320001340004080000000081
:1003860012026B1203B61201E38F34EF60F8E4FD3C
:0B039600FF1202CBAF341203F380EB28
:0303A10012034EF6
:1003A400D2A17F037E001203E9C2A17F327E000244
:0203B40003E95B
:10034E00EF139284EFC313139285EF1313543F13DD
:0C035E009286EF131313541F1392872292
:10036A008F64ED7004C2A08002D2A0E564C4540F69
:0C037A00FF1203A1AF6412034E0203A4A3
:0E03C700E4FD7F0112036A7F057E000203122F
:10026B00C2A0C2A2C2A17F031203A17F057E00120E
:10027B0003E97F0212034E1203A47F057E001203D3
:10028B00E9E4FD7F2812036AE4FD7F0C12036A0286
:02029B0003C797
:1002CB00ED7007EF2480F5638005EF24C0F5637FA5
:1002DB00017E00120312E4FDAF6312036A7F057EF9
:0402EB0000020312F8
:0503F3007D0102036A18
:1002EF008B608A618962AB60AA61A962120003FF09
:1002FF0060101203F374012562F562E43561F56154
:03030F0080E42265
:080176008F388E378D368C3571
:10017E00E4F53AE53AC395395039E47B0AFAF9F8D1
:10018E00AF38AE37AD36AC35120058AF038F4FAF28
:10019E0038AE37AD36AC35E47B0AFAF9F8120058B2
:1001AE008F388E378D368C35743B253AF8A64F0531
:1001BE003A80C0E4F53AE53AC395395017C3E539AC
:1001CE00953AFF743A2FF8E62430FF7D0112036A48
:0401DE00053A80E27C
:0101E20022FA
:0A03D5001202CBE4FD7F0F02036A61
:0A03DF001202CBE4FD7F0E02036A58
:10031200E4FDFCC3ED9FEC9E5015E4FBFA0BBB0021
:0F032200010AEB647D4A70F50DBD00010C80E40B
:0103310022A9
:0A03E900EF1F70011E144E70F72282
:10033B0010503A393837583635342D3332312B3D4E
:02034B0030433D
:100237002091047F0180027F002090047E018002CC
:100247007E00EE4FFF2092047E0180027E00EE4F7B
:10025700FF2093047E0180027E00EE4F60037F0142
:04026700227F0022D0
:10029D00D294D295D296D297EFFD7C006401700373
:1002AD00C29422ED64024C7003C29522ED64034C9E
:0E02BD007003C29622ED64044C7002C29722B8
:1001E300C294C295C296C297120237EF640170415E
:1001F3007F01FE120312120237EF640170337E0196
:10020300EEC39405748094805027AF0612029D209C
:100213009004744F80132091047453800C20920433
:1002230074578005209307745B2EF8E6FF220E8037
:03023300CF7F007A
:0102360022A5
:1003B600C294C295C296C297D290D291D292D2934B
:0103C6002214
:030000000200EA11
:0C00EA00787FE4F6D8FD758164020131D6
:10000300BB010689828A83E0225002E722BBFE02FB
:09001300E32289828A83E493222E
:10001C0075F008758200EF2FFFEE33FECD33CDCC9B
:10002C0033CCC58233C5829BED9AEC99E58298401E
:10003C000CF582EE9BFEED9AFDEC99FC0FD5F0D6FB
:10004C00E4CEFBE4CDFAE4CCF9A88222B800C1B925
:10005C000059BA002DEC8BF084CFCECDFCE5F0CB63
:10006C00F97818EF2FFFEE33FEED33FDEC33FCEB9C
:10007C0033FB10D703994004EB99FB0FD8E5E4F957
:10008C00FA227818EF2FFFEE33FEED33FDEC33FC44
:10009C00C933C910D7059BE99A4007EC9BFCE99A38
:1000AC00F90FD8E0E4C9FAE4CCFB2275F010EF2F7D
:1000BC00FFEE33FEED33FDCC33CCC833C810D7077D
:1000CC009BEC9AE899400AED9BFDEC9AFCE899F8B8
:0E00DC000FD5F0DAE4CDFBE4CCFAE4C8F9224B
:1000F600020386E493A3F8E493A34003F68001F297
:1001060008DFF48029E493A3F85407240CC8C3330A
:10011600C4540F4420C8834004F456800146F6DFD9
:10012600E4800B0102040810204080900332E47E34
:10013600019360BCA3FF543F30E509541FFEE493CE
:10014600A360010ECF54C025E060A840B8E493A395
:10015600FAE493A3F8E493A3C8C582C8CAC583CAC0
:10016600F0A3C8C582C8CAC583CADFE9DEE780BE78
:01034D0000AF
:00000001FF
