:0A11F70048692074686572652100E4
:100FDD00025400000B8F4D617468204572726F7260
:100FED0000028D0000029A0000029C00000C9E4D34
:100FFD00656D6F7279204F76657200044B000000AD
:10100D0000045000000000044600000000014F00E5
:100F2600120EC21211BD1210641211DDE4FDFF1281
:100F360011077BFF7A1179F71210C47FE87E03123E
:100F460010E712121F120F898F4FEF60F86443608B
:100F56002A1211EB7FFA7E001210E77855E6246A12
:100F6600F8A64F785506E618700106E54FB43DD54C
:100F7600120D3B1205B0120EC280CA12121F120EBB
:030F8600C280C264
:100D3B00E4FFFE7854F608F67855E6246AF8E66484
:100D4B002B603B7855E6246AF8E6642D60307855C5
:100D5B00E6246AF8E6645860257855E6246AF8E6D6
:100D6B00643A601A7855E6246AF8E6FD7855E6246D
:100D7B0056F8A605785506E61870BD0680BA785564
:100D8B00E6246AF8E6F54A785506E6187001067807
:100D9B0054E6FE08E6FF7855E6246AF8E6643D6003
:100DAB001C7855E6246AF8E6FD7855E6C39F246067
:0D0DBB00F8A605785506E61870DC0680D90C
:010DC8002208
:1005B000E4F521F522FB7A007956120A12AC06AD59
:1005C00007EC1203308F4E8E4D8D4C8C4B7B007A96
:1005D000007960120A12AC06AD07EC1203308F539B
:1005E0008E528D518C50E54A24D3602124F360470C
:1005F00024E2602E242D706EAF53AE52AD51AC503C
:10060000AB4EAA4DA94CA84B12000A804FAB53AA7F
:1006100052A951A850AF4EAE4DAD4CAC4B12000696
:10062000803AAF53AE52AD51AC50AB4EAA4DA94C2F
:10063000A84B1200FB8025E4FFFEFDFCAB53AA5241
:10064000A951A8501202A1601DAB53AA52A951A8EA
:1006500050AF4EAE4DAD4CAC4B1202048F498E489C
:100660008D478C468007788D7600087601E4FFFE82
:10067000FDFCAB49AA48A947A8461202A160574011
:1006800055AF49AE48AD47AC467A0079AA12095930
:10069000E4F521F5227B007A0079AA121171C3E5F5
:1006A000229FE5219E502F74AA2522F8E6FF642F91
:1006B0006013EF642B600EEF642A6009EF64296019
:1006C00004EFB42807789C76000876010522E5221D
:1006D00070C3052180BFE54AB42F1BAF49AE48ADBA
:1006E00047AC46752700752803120B648F498E4866
:1006F0008D478C468000120AC07B007A0079AA12CE
:0D07000011717D007B007A0079AA02052F9F
:100AC000E4FFFEFDFCAB49AA48A947A8461202A1D3
:100AD0005036788EE61846702F789DE618467028B6
:100AE000AF49AE48AD47AC4612031A8F498E488DC8
:100AF000478C467A0079831209597D01E4FF12126E
:100B00000B7F2D1211EB803CE4FFFEFDFCAB49AAEC
:100B100048A947A8461202A14033788EE6184670CD
:100B20002C789DE618467025AF49AE48AD47AC46D7
:100B3000FB7A007983F52A752B031209617D01E4A4
:100B4000FF12120B7B007A0079830210C4789DE6B5
:100B500064011846700A788EE6184670030211ABDD
:040B600012119922B3
:101199001211DDE4FDFF12120B7B007A00798F0238
:0211A90010C470
:1011AB001211DDE4FDFF12120B7B007A00799E0217
:0211BB0010C45E
:080B64008F268E258D248C23C1
:100B6C00752900752A017B017A00D3EB9528E527BE
:100B7C006480F8EA6480985016AE29AF2A7C007D18
:100B8C000A1204B98E298F2A0BBB00010A80DBAC38
:100B9C0029AD2AEC120330AB26AA25A924A82312CE
:100BAC0000FB120369AB07AA067C007D0A1204CB7A
:100BBC00C3ED9405EC6480948040050BBB00010AE6
:100BCC00AE02AF03AD07AC06EC120330C004C00597
:100BDC00C006C007AC29AD2AEC120330A804A90545
:100BEC00AA06AB07D007D006D005D0041202048F9A
:070BFC00268E258D248C23B9
:010C030022CE
:100EC2007B007A00796A1211717D007B007A0079C9
:100ED2006A12052F7B007A0079561211717D007B10
:100EE200007A00795612052F7B007A007960121180
:100EF200717D007B007A00796012052F7B007A00F9
:100F020079831211717D007B007A00798312052F9B
:100F1200754A6EE47854F608F6788DF608F6789CF1
:040F2200F608F622B5
:060E55008B3D8A3E893F3F
:100E5B00E4F540F541ED24FFF543EC34FFF542C3D7
:100E6B00E5419543E5426480F8E54064809850463F
:100E7B00AB3DAA3EA93F85418285408312046AFFA0
:100E8B003395E0F5448F4585438285428312046A8E
:100E9B00854182854083120497854382854283E591
:100EAB00451204970541E54170020540E5431543A2
:060EBB0070AD154280A994
:010EC100220E
:0A0C04008E348F358B368A3789381D
:100C0E00E4F53BF53CE53545346039AE34AF357C23
:100C1E00007D0A1204CBED2430FFAB36AA37A9387B
:100C2E00053CE53CAC3B7002053B14F5828C83EF32
:100C3E00120497AE34AF357C007D0A1204CB8E348D
:100C4E008F3580C1C3E53C953AE5396480F8E53BC4
:100C5E00648098501CAB36AA37A938053CE53CAEEB
:100C6E003B7002053B14F5828E837430120497801C
:100C7E00D3AB36AA37A938AD3CAC3B120E55AB36CA
:100C8E00AA37A938853C82853B83E4120497AE3B94
:020C9E00AF3C69
:010CA0002231
:080959007B00752A00752B03D9
:0E0961008F268E258D248C238B278A288929AA
:10096F001203698E2C8F2DAC2CAD2DEC120330A8F9
:10097F0004A905AA06AB07AF26AE25AD24AC2312FA
:10098F0000068F318E308D2F8C2EAB27AA28A929E8
:10099F00E4F539F53AAF2DAE2C120C048E328F33AD
:1009AF00E52B452A605CAB27AA28A9298F828E8365
:1009BF00742E120497AC2AAD2BEC1203308F3B8EA2
:1009CF003A8D398C387F007E007D207C41120842A1
:1009DF00AB31AA30A92FA82E1200FB8F318E308D8C
:1009EF002F8C2E120369AB27E5292533F9E528351E
:1009FF0032FAE92401F9E43AFA852A39852B3A12B9
:020A0F000C04D5
:010A110022C2
:03115C0012112449
:10115F00D2A27F1E7E00121215C2A27F327E000223
:02116F00121557
:10112400EF1392A4EFC3131392A5EF1313543F13B9
:0C11340092A6EF131313541F1392A7226E
:101140008F26ED7004C2A08002D2A0E526C4540F01
:0C115000FF12115CAF2612112402115F87
:0E11DD00E4FD7F011211407F057E000210E745
:10106400C2A0C2A1C2A27F0312115C7F0A7E001239
:1010740012157F0212112412115F7F0A7E001212D0
:1010840015E4FD7F28121140E4FD7F0C121140028B
:0210940011DD6C
:10110700ED7007EF2480F5238005EF24C0F5237FDA
:0D111700057E001210E7E4FDAF2302114039
:0C11EB007D011211407F057E00021215EC
:1010C4008B238A248925AB23AA24A925120451FF42
:1010D40060101211EB74012525F525E43524F5245F
:0310E40080E42283
:0A120100121107E4FD7F0F021140F7
:0A120B00121107E4FD7F0E021140EE
:09121F001211DDE4FDFF021201D1
:1010E700E4FDFCC3ED9FEC9E5015E4FBFA0BBB003F
:0F10F700010AEB647D4A70F50DBD00010C80E429
:0111060022C6
:0A121500EF1F70011E144E70F72247
:10101D0010083738393A343536583132332D43309C
:02102D003D2B59
:101030002095047F0180027F002094047E018002BD
:101040007E00EE4FFF2096047E0180027E00EE4F70
:10105000FF2097047E0180027E00EE4F60037F0137
:04106000227F0022C9
:10109600D290D291D292D293EFFD7C00640170037C
:1010A600C29022ED64024C7003C29122ED64034C9F
:0E10B6007003C29222ED64044C7002C29322B9
:100F8900C290C291C292C293121030EF64017041B3
:100F99007F01FE1210E7121030EF640170337E01F9
:100FA900EEC39405748094805027AF0612109620E2
:100FB900940474078013209504740B800C20960404
:100FC900740F800520970774132EF8E6FF220E8010
:030FD900CF7F00C7
:010FDC0022F2
:1011BD00C290C291C292C293D294D295D296D29736
:0111CD0022FF
:100003000203D5E86480F8E933E83360110460F053
:10001300ED33EC337009E8FCE9FDEAFEEBFF220463
:1000230060DED3EB9FEA9EE99DE8C2E78CF0C2F75E
:1000330095F0400CE8CCF8E9CDF9EACEFAEBCFFB2A
:100043001203A085D0F05804700320D5B3E80470E0
:10005300075002B2D50203DF92D5EC0460F7E4CC7B
:10006300C0E0C398F8603B94186008400DD0E0FBF3
:100073000203B7E4FBFAC9FC8028E830E406E4C9CC
:10008300FBE4CAFCE830E305E4C9CACBFCE8540747
:100093006010F8C3E913F9EA13FAEB13FBEC13FC52
:1000A300D8F130F52FC3E49CFCEF9BFFEE9AFEEDF5
:1000B30099FDD0E0FBEF4E4D4C701222DB0302039F
:1000C300DCEC2CFCEF33FFEE33FEED33FDED30E7DC
:1000D300EB0203B7EF2BFFEE3AFEED39FDD0E0FB69
:1000E30050130BBB00030203DFED13FDEE13FEEF12
:0800F30013FFEC13FC0203B73C
:1000FB00EC4D6011E8497017ED33EC3304600DE4FF
:10010B00FCFFFEFD22E933E8330470F80203D5123D
:10011B0003A058046009E4CC24815006285009023E
:10012B0003DF2840030203DCC0E0EB4A7044B980D4
:10013B0006D0E0FB0203CBEF4E701CBD8008EBFF3B
:10014B00EAFEE9FD80EBE98DF0A4FEE5F00201E4A7
:10015B00E9CDF9EAFEEBFFEF89F0A4FCE5F0CE89DF
:10016B00F0A42EFFE435F0CD89F0A42DFEE435F09C
:10017B008067EF4E7005BD80D780C3EF8BF0A4ACCA
:10018B00F0EE8BF0A42CFCE435F0F8EF8AF0A42C05
:10019B00E5F038FCE433CB8DF0A42CFCE5F03BF818
:1001AB00EE8AF0A42CFCE5F038F8E433CF89F0A408
:1001BB002CFCE5F038CF3400CE89F0A42FFFE5F00E
:1001CB003EFEE433C98DF0A42EFEE5F039CD8AF066
:1001DB00A42FFFE5F03EFEE43DFD33D0E0FB5007DE
:1001EB000BBB000F0203DFEC2CFCEF33FFEE33FEF7
:0601FB00ED33FD0203B725
:100201000203DFEC5D046005E8590470030203D5C5
:100211001203A0580460F6EC4860F2EC7004FDFE95
:10022100FF22C860DB2481C85009C39860025006D0
:100231000203DC9850CAF582E9294B4A7005AB826A
:100241000203CB75F0007C1A7880C3EF9BEE9AED28
:1002510099400DC3EF9BFFEE9AFEED99FDE842F048
:10026100DC23ACF0D0E0FFD0E0FED0E0FDAB82209B
:10027100E7101BEB60BAEC2CFCEF33FFEE33FEED25
:1002810033FD0203B7E803F830E705C0F075F0006D
:10029100EF2FFFEE33FEED33FD40B830E7C280AA09
:1002A10074F8CC6480CCC86480C8F58204604FC304
:1002B100EB9FF5F0EA9E42F0E99D42F0E89C45F0A3
:1002C100603C501DE5825FFFE582D313CB5BCBF42D
:1002D1002B5582FB50280ABA002409B90020088056
:1002E1001DE5825BFBE582D313CF5FCFF4C3132FF0
:1002F1005582FF50090EBE00050DBD00010CC3EB78
:100301009FF5F0EA9E42F0E99D42F0E89C45F060DD
:0903110007CC4820E701B3EC22FF
:10031A00ED33EC33600A047003BD8004ECB2E7FCF1
:01032A0022B0
:10032B0075F020800E75F010800575F0087D007E4D
:10033B00007F003392D530D503120501EC3340100A
:10034B00EF33FFEE33FEED33FDEC33FCD5F0ED2256
:0E035B00E5F0247EA2D513CC92E7CDCEFF2292
:10036900EDD2E7CD33EC3392D524814006E4FFFE8C
:10037900FDFC22FCE4CFCECDCC24E0501174FF80EB
:10038900EDC3CC13CCCD13CDCE13CECF13CF047088
:07039900F030D5DE02050182
:100842008F378E368D358C34E4FFFE7D807C3FAB56
:1008520037AA36A935A8341202A17009AF37AE36CD
:10086200AD35AC3422AF37AE36AD35AC341203EA17
:10087200FBAF3BAE3AAD39AC381203EAFFBF010819
:10088200E4FFFE7D807C3F22EF64046022EB64047F
:10089200601DBB0127E4FFFEFDFCAB3BAA3AA93970
:1008A200A8381202A160084006E4FFFEFDFC227493
:1008B200FFF53BF53AF539F538020950E4F53CF518
:1008C2003DFFFEFDFCAB37AA36A935A8341202A1C2
:1008D200504BAF3BAE3AAD39AC381203698E3C8F08
:1008E2003DAC3CAD3DEC120330C8ECC8C9EDC9CA01
:1008F200EECACBEFCBAF3BAE3AAD39AC3812000605
:10090200E4FBFAF9F81202A170A5AF37AE36AD35A5
:10091200AC3412031A8F378E368D358C34AF37AE26
:1009220036AD35AC34120741AB3BAA3AA939A838E7
:100932001200FB120CD98F3B8E3A8D398C38E53D73
:1009420030E00B12031A8F3B8E3A8D398C38AF3B55
:07095200AE3AAD39AC3822CA
:1003A000E9D2E7C933E833F892D5EDD2E7CD33ECA3
:0703B00033FC5002B2D5221C
:1003B700EC30E7100FBF000C0EBE00080DBD0004A7
:1003C7000BEB6014A2D5EB13FCED92E7FD2274FF53
:1003D700FCFDFEFF22E480F8A2D574FF13FC7D80AC
:0303E700E480EFC0
:1003EA00ED33EC33601004700FED547F7005740226
:0A03FA0092E0227404220422E4229F
:100CA10033DA929E35B16011377FE5FE39218489AF
:100CB1003AAEC3FF3C1D955B3D6358473E75FDF061
:100CC1003F3172183F800000C2D50203DF0203D515
:100CD100BD80FA50F30203DCED33EC330460F17BA9
:100CE1003B7AAA79B8783F1200FBED33EC3392D509
:100CF100247B5011A2D570DB500BED4480240450AD
:100D010004A2D580CEEFFBEEFAEDF9ECF8120369FF
:100D1100EFF582F404FC12033512000AC082900C34
:100D2100A17409120413ED33CC33D0F092D525F020
:0A0D3100A2D57001C313CC13FD22FC
:10070D003E9248DA3ECCCCCD3F2AAAAB4000000049
:10071D003F8000003F9837F03FB504F33FD744FCCE
:10072D003E3172173EB172173F0515913EDE5BD912
:10073D00D2008002C200EDD2E7F8CD33EC33047065
:10074D000BBD800592D50203DF0203D540FBD31408
:10075D0060F2F5F07C3FEE7A00C39496C8948B401E
:10076D00230AC89469C8941A401A0AC89468C89490
:10077D001F40110AC8945AC89425400805F07A0004
:10078D00CDC2E7CDC0F08C3E8D3F8E408F41EA2328
:10079D0023C0E0241DF582E43407F58312051F12F2
:1007AD00000AECC0E0EDC0E0EEC0E0EFC0E01205E5
:1007BD000FA83EA93FAA40AB41120006D0E0FBD0E6
:1007CD00E0FAD0E0F9D0E0B2E7F81202048C3E8DE9
:1007DD003F8E408F4190070D7403120404A83EA96B
:1007ED003FAA40AB411200FBD0E0600F2429F582F7
:1007FD00E43407F58312051F12000A8C3E8D3F8EDF
:10080D00408F41D0E0C3947FFDE49400FC1203308F
:10081D007B187A727931783F1200FBA83EA93FAA66
:10082D0040AB4112000A30000B7BD97A5B79DE7840
:05083D003E1200FB2249
:10040400C0E0EFFBEEFAEDF9ECF81200FBD0E0F5FA
:10041400F0EFFBEEFAEDF9ECF812050FA3A3A3A39A
:10042400E8C0E0E9C0E0EAC0E0EBC0E0C0F01200E0
:10043400FB12051FA3A3A3A312000AD0F0D0E0FB74
:0D044400D0E0FAD0E0F9D0E0F8D5F0D422F5
:03000000020DC925
:0C0DC900787FE4F6D8FD7581B3020E10AF
:10045100BB010689828A83E0225002E722BBFE02A9
:09046100E32289828A83E49322DC
:10046A00BB010CE58229F582E5833AF583E0225047
:10047A0006E92582F8E622BBFE06E92582F8E22291
:0D048A00E58229F582E5833AF583E49322AB
:10049700F8BB010DE58229F582E5833AF583E8F09B
:1004A700225006E92582C8F622BBFE05E92582C847
:0204B700F2222F
:1004B900EF8DF0A4A8F0CF8CF0A428CE8DF0A42E57
:0204C900FE2211
:1004CB00C2D5EC30E709B2D5E4C39DFDE49CFCEE4C
:1004DB0030E715B2D5E4C39FFFE49EFE12055BC364
:1004EB00E49DFDE49CFC800312055B30D507C3E45F
:0604FB009FFFE49EFE22BB
:0E050100C3E49FFFE49EFEE49DFDE49CFC220B
:10050F00E493FC740193FD740293FE740393FF2232
:10051F00E493F8740193F9740293FA740393FB2232
:10117100E4FFFE120451600C0FEF70010E09E970DB
:05118100F20A80EF22DC
:100A12008B238A248925AB23AA24A925120451FFFA
:100A2200121186500D74012525F525E43524F5248F
:100A320080E4D200AB23AA24A925120451FF642B1F
:100A42006004EFB42D1BAB230525E525AA24700213
:100A5200052414F9120451642D6003D38001C3925A
:100A620000E4F526F527AB23AA24A925120451FF99
:100A72001211CE5036AB23AA24A925120451FF33FA
:100A820095E0FEEF24D0FBEE34FFFAAE26AF277CD2
:100A9200007D0A1204B9EF2BF527EE3AF526740110
:100AA2002525F525E43524F52480BB300006AE2645
:0E0AB200AF278009C3E49527FFE49526FE22B6
:10052F00EF4E6012EF60010EEDBB010B89828A83E3
:10053F00F0A3DFFCDEFA2289F05007F709DFFCA9F0
:0C054F00F022BBFEFCF309DFFCA9F02247
:100DD500020F26E493A3F8E493A34003F68001F2FF
:100DE50008DFF48029E493A3F85407240CC8C3331F
:100DF500C4540F4420C8834004F456800146F6DFEE
:100E0500E4800B0102040810204080900FDDE47E91
:100E1500019360BCA3FF543F30E509541FFEE493E2
:100E2500A360010ECF54C025E060A840B8E493A3A9
:100E3500FAE493A3F8E493A3C8C582C8CAC583CAD4
:100E4500F0A3C8C582C8CAC583CADFE9DEE780BE8C
:01102F0000C0
:10055B00BC000BBE0029EF8DF084FFADF022E4CC84
:10056B00F875F008EF2FFFEE33FEEC33FCEE9DEC4D
:10057B00984005FCEE9DFE0FD5F0E9E4CEFD22ED93
:10058B00F8F5F0EE8420D21CFEADF075F008EF2FDD
:10059B00FFED33FD4007985006D5F0F222C398FDCE
:0505AB000FD5F0EA226B
:0F11CE00EFC394304007EF943A50028001C322E0
:10118600EFC394094005EF940E4003BF2003D380BC
:0311960001C32270
:00000001FF
