:0A0E000048692074686572652100DE
:030DB600011D001C
:100BDA00120CB77F0A7E00120D5E120DF27F0A7E9A
:100BEA0000120D5EE4FDFF120D177F0A7E00120D42
:100BFA005E7BFF7A0E7900120D3B7FF47E01120DA7
:100C0A005E120E287F0A8011120C2F8F1DEF60F8DA
:100C1A006443600C120E317FC87E00120D5E80E8BC
:050C2A00120E2880E31A
:090E2800120DF2E4FDFF020E0AB6
:060B00008B568A5789584C
:100B0600E4F559F55AED24FFF55CEC34FFF55BC3CB
:100B1600E55A955CE55B6480F8E559648098504633
:100B2600AB56AA57A958855A8285598312046AFF7B
:100B36003395E0F55D8F5E855C82855B8312046A82
:100B4600855A82855983120497855C82855B83E585
:100B56005E120497055AE55A70020559E55C155C64
:060B660070AD155B80A9D3
:010B6C002266
:0A093D008E5F8F608B618A62896310
:10094700E4F566F567E560455F6039AE5FAF607CEB
:10095700007D0A1204B9ED2430FFAB61AA62A963D6
:100967000567E567AC667002056614F5828C83EF50
:10097700120497AE5FAF607C007D0A1204B98E5FE8
:100987008F6080C1C3E5679565E5646480F8E566B7
:10099700648098501CAB61AA62A9630567E567AEDE
:1009A700667002056614F5828E8374301204978090
:1009B700D3AB61AA62A963AD67AC66120B00AB61EA
:1009C700AA62A963856782856683E4120497AE6687
:0209D700AF6708
:0109D90022FB
:0E088C008F0B8E0A8D098C088B0C8A0D890E3D
:10089A0012023F8E118F12AC11AD12EC120206A891
:1008AA0004A905AA06AB07AF0BAE0AAD09AC08123C
:1008BA0000068F168E158D148C13AB0CAA0DA90E7B
:1008CA00E4F564F565AF12AE1112093D8E178F1863
:1008DA00E510450F605CAB0CAA0DA90E8F828E83C2
:1008EA00742E120497AC0FAD10EC1202068F538EC1
:1008FA00528D518C507F007E007D207C41120775FD
:10090A00AB16AA15A914A8131200FB8F168E158D03
:10091A00148C1312023FAB0CE50E2518F9E50D35C0
:10092A0017FAE92401F9E43AFA850F648510651289
:02093A00093D75
:01093C002298
:030DCC00120D7E87
:100DCF00D2A27F037E00120E1EC2A27F327E0002CD
:020DDF000E1EE6
:100D7E00EF1392A4EFC3131392A5EF1313543F1363
:0C0D8E0092A6EF131313541F1392A72218
:100D9A008F6BED7004C2A08002D2A0E56BC4540F21
:0C0DAA00FF120DCCAF6B120D7E020DCFBE
:0E0DF200E4FD7F01120D9A7F057E00020D5E6A
:100CB700C2A0C2A1C2A27F03120DCC7F057E001283
:100CC7000E1E7F02120D7E120DCF7F057E00120EC3
:100CD7001EE4FD7F28120D9AE4FD7F0C120D9A0287
:020CE7000DF20C
:100D1700ED7007EF2480F5688005EF24C0F5687F44
:100D2700017E00120D5EE4FDAF68120D9A7F057E0D
:040D370000020D5E4B
:050E31007D01020D9A95
:100D3B008B688A69896AAB68AA69A96A120451FF30
:100D4B006010120E317401256AF56AE43569F56994
:030D5B0080E4220F
:080B6D008F248E238D228C21C0
:100B7500E4F526E526C395255039E47B0AFAF9F80C
:100B8500AF24AE23AD22AC2112052BAF038F3BAFB3
:100B950024AE23AD22AC21E47B0AFAF9F812052B29
:100BA5008F248E238D228C2174272526F8A63B05BC
:100BB5002680C0E4F526E526C395255017C3E5250F
:100BC5009526FF74262FF8E62430FF7D01120D9A35
:040BD500052680E28F
:010BD90022F9
:0A0E0A00120D17E4FD7F0F020D9A90
:0A0E1400120D17E4FD7F0E020D9A87
:100D5E00E4FDFCC3ED9FEC9E5015E4FBFA0BBB00CB
:0F0D6E00010AEB647D4A70F50DBD00010C80E4B5
:010D7D002253
:0A0E1E00EF1F70011E144E70F72242
:100DB900103C3738393A343536583132332D4330CF
:020DC9003D2BC0
:100C83002095047F0180027F002094047E0180026E
:100C93007E00EE4FFF2096047E0180027E00EE4F21
:100CA300FF2097047E0180027E00EE4F60037F01E8
:040CB300227F00227A
:100CE900D290D291D292D293EFFD7C00640170032D
:100CF900C29022ED64024C7003C29122ED64034C50
:0E0D09007003C29222ED64044C7002C2932269
:100C2F00C290C291C292C293120C83EF64017041C1
:100C3F007F01FE120D5E120C83EF640170337E0193
:100C4F00EEC39405748094805027AF06120CE920F0
:100C5F009404743B8013209504743F800C209604F9
:100C6F007443800520970774472EF8E6FF220E8005
:030C7F00CF7F0024
:010C8200224F
:100DE100C290C291C292C293D294D295D296D29716
:010DF10022DF
:100003000202ABE86480F8E933E83360110460F07E
:10001300ED33EC337009E8FCE9FDEAFEEBFF220463
:1000230060DED3EB9FEA9EE99DE8C2E78CF0C2F75E
:1000330095F0400CE8CCF8E9CDF9EACEFAEBCFFB2A
:1000430012027685D0F05804700320D5B3E804700B
:10005300075002B2D50202B592D5EC0460F7E4CCA6
:10006300C0E0C398F8603B94186008400DD0E0FBF3
:1000730002028DE4FBFAC9FC8028E830E406E4C9F7
:10008300FBE4CAFCE830E305E4C9CACBFCE8540747
:100093006010F8C3E913F9EA13FAEB13FBEC13FC52
:1000A300D8F130F52FC3E49CFCEF9BFFEE9AFEEDF5
:1000B30099FDD0E0FBEF4E4D4C701222DB030202A0
:1000C300B2EC2CFCEF33FFEE33FEED33FDED30E706
:1000D300EB02028DEF2BFFEE3AFEED39FDD0E0FB94
:1000E30050130BBB00030202B5ED13FDEE13FEEF3D
:0800F30013FFEC13FC02028D67
:1000FB00EC4D6011E8497017ED33EC3304600DE4FF
:10010B00FCFFFEFD22E933E8330470F80202AB1268
:10011B00027658046009E4CC248150062850090269
:10012B0002B52840030202B2C0E0EB4A7044B9802A
:10013B0006D0E0FB0202A1EF4E701CBD8008EBFF66
:10014B00EAFEE9FD80EBE98DF0A4FEE5F00201E4A7
:10015B00E9CDF9EAFEEBFFEF89F0A4FCE5F0CE89DF
:10016B00F0A42EFFE435F0CD89F0A42DFEE435F09C
:10017B008067EF4E7005BD80D780C3EF8BF0A4ACCA
:10018B00F0EE8BF0A42CFCE435F0F8EF8AF0A42C05
:10019B00E5F038FCE433CB8DF0A42CFCE5F03BF818
:1001AB00EE8AF0A42CFCE5F038F8E433CF89F0A408
:1001BB002CFCE5F038CF3400CE89F0A42FFFE5F00E
:1001CB003EFEE433C98DF0A42EFEE5F039CD8AF066
:1001DB00A42FFFE5F03EFEE43DFD33D0E0FB5007DE
:1001EB000BBB000F0202B5EC2CFCEF33FFEE33FE22
:0601FB00ED33FD02028D50
:1002010075F020800E75F010800575F0087D007E78
:10021100007F003392D530D5031205BDEC33401079
:10022100EF33FFEE33FEED33FDEC33FCD5F0ED2281
:0E023100E5F0247EA2D513CC92E7CDCEFF22BD
:10023F00EDD2E7CD33EC3392D524814006E4FFFEB7
:10024F00FDFC22FCE4CFCECDCC24E0501174FF8016
:10025F00EDC3CC13CCCD13CDCE13CECF13CF0470B3
:07026F00F030D5DE0205BDF1
:100775008F4F8E4E8D4D8C4CE4FFFE7D807C3FABC4
:100785004FAA4EA94DA84C1202DA7009AF4FAE4ED2
:10079500AD4DAC4C22AF4FAE4EAD4DAC4C1202C080
:1007A500FBAF53AE52AD51AC501202C0FFBF0108B2
:1007B500E4FFFE7D807C3F22EF64046022EB64044D
:1007C500601DBB0127E4FFFEFDFCAB53AA52A951F6
:1007D500A8501202DA60084006E4FFFEFDFC227410
:1007E500FFF553F552F551F550020883E4F554F53C
:1007F50055FFFEFDFCAB4FAA4EA94DA84C1202DADF
:10080500504BAF53AE52AD51AC5012023F8E548F88
:1008150055AC54AD55EC120206C8ECC8C9EDC9CAB1
:10082500EECACBEFCBAF53AE52AD51AC5012000672
:10083500E4FBFAF9F81202DA70A5AF4FAE4EAD4DF2
:10084500AC4C1203538F4F8E4E8D4D8C4CAF4FAE2B
:100855004EAD4DAC4C120674AB53AA52A951A850DB
:100865001200FB120A128F538E528D518C50E55592
:1008750030E00B1203538F538E528D518C50AF5372
:07088500AE52AD51AC502250
:10027600E9D2E7C933E833F892D5EDD2E7CD33ECCE
:0702860033FC5002B2D52247
:10028D00EC30E7100FBF000C0EBE00080DBD0004D2
:10029D000BEB6014A2D5EB13FCED92E7FD2274FF7E
:1002AD00FCFDFEFF22E480F8A2D574FF13FC7D80D7
:0302BD00E480EFEB
:1002C000ED33EC33601004700FED547F7005740251
:0A02D00092E0227404220422E422CA
:1002DA0074F8CC6480CCC86480C8F58204604FC3CB
:1002EA00EB9FF5F0EA9E42F0E99D42F0E89C45F06A
:1002FA00603C501DE5825FFFE582D313CB5BCBF4F4
:10030A002B5582FB50280ABA002409B9002008801C
:10031A001DE5825BFBE582D313CF5FCFF4C3132FB6
:10032A005582FF50090EBE00050DBD00010CC3EB3E
:10033A009FF5F0EA9E42F0E99D42F0E89C45F060A4
:09034A0007CC4820E701B3EC22C6
:10035300ED33EC33600A047003BD8004ECB2E7FCB8
:010363002277
:1009DA0033DA929E35B16011377FE5FE3921848979
:1009EA003AAEC3FF3C1D955B3D6358473E75FDF02B
:1009FA003F3172183F800000C2D50202B50202AB35
:100A0A00BD80FA50F30202B2ED33EC330460F17B9D
:100A1A003B7AAA79B8783F1200FBED33EC3392D5D2
:100A2A00247B5011A2D570DB500BED448024045076
:100A3A0004A2D580CEEFFBEEFAEDF9ECF812023FF4
:100A4A00EFF582F404FC12020B12000AC08290092C
:100A5A00DA7409120413ED33CC33D0F092D525F0B1
:0A0A6A00A2D57001C313CC13FD22C6
:100640003E9248DA3ECCCCCD3F2AAAAB4000000017
:100650003F8000003F9837F03FB504F33FD744FC9C
:100660003E3172173EB172173F0515913EDE5BD9E0
:10067000D2008002C200EDD2E7F8CD33EC33047033
:100680000BBD800592D50202B50202AB40FBD3142C
:1006900060F2F5F07C3FEE7A00C39496C8948B40EC
:1006A000230AC89469C8941A401A0AC89468C8945E
:1006B0001F40110AC8945AC89425400805F07A00D2
:1006C000CDC2E7CDC0F08C198D1A8E1B8F1CEA238A
:1006D00023C0E02450F582E43406F5831205DB12D2
:1006E000000AECC0E0EDC0E0EEC0E0EFC0E01205B3
:1006F000CBA819A91AAA1BAB1C120006D0E0FBD08C
:10070000E0FAD0E0F9D0E0B2E7F81203678C198D77
:100710001A8E1B8F1C9006407403120404A819A99A
:100720001AAA1BAB1C1200FBD0E0600F245CF58200
:10073000E43406F5831205DB12000A8C198D1A8E3B
:100740001B8F1CD0E0C3947FFDE49400FC120206D2
:100750007B187A727931783F1200FBA819A91AAA7E
:100760001BAB1C12000A30000B7BD97A5B79DE7858
:050770003E1200FB2217
:100364000202B5EC5D046005E8590470030202ABB7
:10037400120276580460F6EC4860F2EC7004FDFE5C
:10038400FF22C860DB2481C85009C398600250066C
:100394000202B29850CAF582E9294B4A7005AB8231
:1003A4000202A175F0007C1A7880C3EF9BEE9AEDEF
:1003B40099400DC3EF9BFFEE9AFEED99FDE842F0E4
:1003C400DC23ACF0D0E0FFD0E0FED0E0FDAB822037
:1003D400E7101BEB60BAEC2CFCEF33FFEE33FEEDC1
:1003E40033FD02028DE803F830E705C0F075F00034
:1003F400EF2FFFEE33FEED33FD40B830E7C280AAA5
:10040400C0E0EFFBEEFAEDF9ECF81200FBD0E0F5FA
:10041400F0EFFBEEFAEDF9ECF81205CBA3A3A3A3DE
:10042400E8C0E0E9C0E0EAC0E0EBC0E0C0F01200E0
:10043400FB1205DBA3A3A3A312000AD0F0D0E0FBB8
:0D044400D0E0FAD0E0F9D0E0F8D5F0D422F5
:03000000020A747D
:0C0A7400787FE4F6D8FD758189020ABB8A
:10045100BB010689828A83E0225002E722BBFE02A9
:09046100E32289828A83E49322DC
:10046A00BB010CE58229F582E5833AF583E0225047
:10047A0006E92582F8E622BBFE06E92582F8E22291
:0D048A00E58229F582E5833AF583E49322AB
:10049700F8BB010DE58229F582E5833AF583E8F09B
:1004A700225006E92582C8F622BBFE05E92582C847
:0204B700F2222F
:1004B900C2D5EC30E709B2D5E4C39DFDE49CFCEE5E
:1004C90030E715B2D5E4C39FFFE49EFE1205EBC3E6
:1004D900E49DFDE49CFC80031205EB30D507C3E4E1
:0604E9009FFFE49EFE22CD
:1004EF0075F008758200EF2FFFEE33FECD33CDCCC4
:1004FF0033CCC58233C5829BED9AEC99E582984047
:10050F000CF582EE9BFEED9AFDEC99FC0FD5F0D623
:10051F00E4CEFBE4CDFAE4CCF9A88222B800C1B94D
:10052F000059BA002DEC8BF084CFCECDFCE5F0CB8B
:10053F00F97818EF2FFFEE33FEED33FDEC33FCEBC4
:10054F0033FB10D703994004EB99FB0FD8E5E4F97F
:10055F00FA227818EF2FFFEE33FEED33FDEC33FC6C
:10056F00C933C910D7059BE99A4007EC9BFCE99A60
:10057F00F90FD8E0E4C9FAE4CCFB2275F010EF2FA5
:10058F00FFEE33FEED33FDCC33CCC833C810D707A5
:10059F009BEC9AE899400AED9BFDEC9AFCE899F8E0
:0E05AF000FD5F0DAE4CDFBE4CCFAE4C8F92273
:0E05BD00C3E49FFFE49EFEE49DFDE49CFC224F
:1005CB00E493FC740193FD740293FE740393FF2276
:1005DB00E493F8740193F9740293FA740393FB2276
:100A8000020BDAE493A3F8E493A34003F68001F2A7
:100A900008DFF48029E493A3F85407240CC8C33377
:100AA000C4540F4420C8834004F456800146F6DF46
:100AB000E4800B0102040810204080900DB6E47E13
:100AC000019360BCA3FF543F30E509541FFEE4933B
:100AD000A360010ECF54C025E060A840B8E493A302
:100AE000FAE493A3F8E493A3C8C582C8CAC583CA2D
:100AF000F0A3C8C582C8CAC583CADFE9DEE780BEE5
:010DCB000027
:1005EB00BC000BBE0029EF8DF084FFADF022E4CCF4
:1005FB00F875F008EF2FFFEE33FEEC33FCEE9DECBD
:10060B00984005FCEE9DFE0FD5F0E9E4CEFD22ED02
:10061B00F8F5F0EE8420D21CFEADF075F008EF2F4C
:10062B00FFED33FD4007985006D5F0F222C398FD3D
:05063B000FD5F0EA22DA
:00000001FF
