:0A1257004869207468657265210083
:100FFE00026D00000BB24D617468204572726F7203
:10100E000002B0000004640000000004690000004B
:0A101E0000045F00000000016800FC
:100EE800120F4B12103B1211BAE4FDFF1211547B82
:100EF800FF7A1279571211057FDC7E0512119A12BA
:100F0800126B120FAA8F68EF60F86443602D1212FB
:100F18004B7FFA7E0012119A786EE62483F8A66851
:100F2800786E06E618700106E568B43DD5120CEE39
:100F38001208CA1210D9120F4B80C712126B120F67
:030F48004B80BF1C
:100CEE00E4FFFE786DF608F6786EE62483F8E66487
:100CFE002B603B786EE62483F8E6642D6030786EC8
:100D0E00E62483F8E664586025786EE62483F8E6D8
:100D1E00643A601A786EE62483F8E6FD786EE6246F
:100D2E006FF8A605786E06E61870BD0680BA786E66
:100D3E00E62483F8E6F563786E06E6187001067809
:100D4E006DE6FE08E6FF786EE62483F8E6643D6005
:100D5E001C786EE62483F8E6FD786EE6C39F247950
:0D0D6E00F8A605786E06E61870DC0680D940
:010D7B002255
:1008CA007B007A00796F120A69AC06AD07EC120355
:1008DA001F8F678E668D658C647B007A007979122A
:1008EA000A69AC06AD07EC12031F8F6C8E6B8D6A1A
:1008FA008C69E56324D3602124F3604724E2602EE7
:10090A00242D7075AF6CAE6BAD6AAC69AB67AA6625
:10091A00A965A86412000A804FAB6CAA6BA96AA8E1
:10092A0069AF67AE66AD65AC64120006803AAF6C1B
:10093A00AE6BAD6AAC69AB67AA66A965A86412001A
:10094A00FB8025E4FFFEFDFCAB6CAA6BA96AA869D3
:10095A001202A1601DAB6CAA6BA96AA869AF67AE47
:10096A0066AD65AC641202048F628E618D608C5F25
:10097A00800778B07600087601E563B42F19AF6274
:10098A00AE61AD60AC5F752500752604120B178F3A
:10099A00628E618D608C5FAF62AE61AD60AC5F7B71
:0E09AA00007A00799C7528007529040209B8AE
:080B17008F248E238D228C2116
:100B1F007527007528017B017A00D3EB9526E52513
:100B2F006480F8EA6480985016AE27AF287C007D69
:100B3F000A1204B98E278F280BBB00010A80DBAC89
:100B4F0027AD28EC12031FAB24AA23A922A8211238
:100B5F0000FB120358AB07AA067C007D0A1204CBD8
:100B6F00C3ED9405EC6480948040050BBB00010A33
:100B7F00AE02AF03AD07AC06EC12031FC004C005F5
:100B8F00C006C007AC27AD28EC12031FA804A905A7
:100B9F00AA06AB07D007D006D005D0041202048FE7
:070BAF00248E238D228C210E
:010BB600221C
:100F4B007B007A0079831211CF7D007B007A0079C8
:100F5B00831205FD7B007A00796F1211CF7D007B28
:100F6B00007A00796F1205FD7B007A0079791211F6
:100F7B00CF7D007B007A0079791205FD7B007A002A
:100F8B00799C1211CF7D007B007A00799C1205FDB4
:0F0F9B0075636EE4786DF608F678B0F608F62206
:1010D90078B1E6184670121211BA7D01E4FF1211B7
:1010E900547B007A00799C800F1211BAE4FDFF123B
:0C10F900121A7B007A0079B21211052255
:060E7B008B3B8A3C893D1F
:100E8100E4F53EF53FED24FFF541EC34FFF540C3B9
:100E9100E53F9541E5406480F8E53E648098504621
:100EA100AB3BAA3CA93D853F82853E8312046AFF84
:100EB1003395E0F5428F4385418285408312046A70
:100EC100853F82853E83120497854182854083E573
:100ED10043120497053FE53F7002053EE541154188
:060EE10070AD154080A970
:010EE70022E8
:0A0BB7008E328F338B348A35893675
:100BC100E4F539F53AE53345326039AE32AF337C7D
:100BD100007D0A1204CBED2430FFAB34AA35A936CF
:100BE100053AE53AAC397002053914F5828C83EF88
:100BF100120497AE32AF337C007D0A1204CB8E32E1
:100C01008F3380C1C3E53A9538E5376480F8E5391B
:100C1100648098501CAB34AA35A936053AE53AAE42
:100C2100397002053914F5828E837430120497806D
:100C3100D3AB34AA35A936AD3AAC39120E7BAB34FD
:100C4100AA35A936853A82853983E4120497AE39EB
:020C5100AF3AB8
:010C5300227E
:0E09B8008F248E238D228C218B258A26892761
:1009C6001203588E2A8F2BAC2AAD2BEC12031FA8CC
:1009D60004A905AA06AB07AF24AE23AD22AC2112AB
:1009E60000068F2F8E2E8D2D8C2CAB25AA26A9279F
:1009F600E4F537F538AF2BAE2A120BB78E308F31B0
:100A0600E5294528605CAB25AA26A9278F828E8317
:100A1600742E120497AC28AD29EC12031F8F398E61
:100A2600388D378C367F007E007D207C411207B3DF
:100A3600AB2FAA2EA92DA82C1200FB8F2F8E2E8D40
:100A46002D8C2C120358AB25E5272531F9E52635E3
:100A560030FAE92401F9E43AFA852837852938126B
:020A66000BB7CC
:010A6800226B
:1011F700D2A27F037E00121261C2A27F327E00025A
:02120700126172
:10117800EF1392A4EFC3131392A5EF1313543F1365
:1011880092A6EF131313541F1392A77F0A7E00022F
:02119800119AAA
:10112E008F24ED7004C2A08002D2A0E524C4540F17
:10113E00FF1211781211F7AF241211781211F77FE6
:06114E000A7E0002119A66
:1011BA00E4FD7F0112112E7F057E0012119A7F0A2B
:0511CA007E0002119AF5
:10103B00C2A0C2A1C2A27F031211781211F77F0ABC
:10104B007E001212617F021211781211F77F0A7E55
:10105B0000121261E4FD7F2812112EE4FD7F0C12A9
:0C106B00112E1211BA7F0A7E0002119AA9
:10115400ED7007EF2480F5218005EF24C0F5217F91
:10116400057E0012119AE4FDAF2112112E7F0A7E32
:041174000002119ACA
:0C124B007D0112112E7F057E0002119A19
:101105008B218A228923AB21AA22A923120451FF0C
:10111500601012124B74012523F523E43522F522C4
:0911250080E47F0A7E0002119AA9
:080E08008F478E468D458C4496
:100E1000E4F549E549C395485039E47B0AFAF9F805
:100E2000AF47AE46AD45AC4412053DAF038F5EAF54
:100E300047AE46AD45AC44E47B0AFAF9F812053DED
:100E40008F478E468D458C44744A2549F8A65E0529
:100E50004980C0E4F549E549C395485017C3E548C2
:100E60009549FF74492FF8E62430FF7D0112112EB9
:0B0E7000054980E27F0A7E0002119A13
:10120900121154E4FD7F0F12112E7F0A7E00021184
:011219009A3A
:10121A00121154E4FD7F0E12112E7F0A7E00021174
:01122A009A29
:09126B001211BAE4FDFF021209A0
:10119A00E4FDFCC3ED9FEC9E5015E4FBFA0BBB008B
:0F11AA00010AEB647D4A70F50DBD00010C80E475
:0111B9002213
:0A126100EF1F70011E144E70F722FB
:1010280010083738393A343536583132332D433091
:021038003D2B4E
:101077002095047F0180027F002094047E01800276
:101087007E00EE4FFF2096047E0180027E00EE4F29
:10109700FF2097047E0180027E00EE4F60037F01F0
:0410A700227F002282
:1010AB00D290D291D292D293EFFD7C006401700367
:1010BB00C29022ED64024C7003C29122ED64034C8A
:0E10CB007003C29222ED64044C7002C29322A4
:100FAA00C290C291C292C293121077EF640170414B
:100FBA007F01FE12119A121077EF640170337E01DD
:100FCA00EEC39405748094805027AF061210AB20AC
:100FDA00940474078013209504740B800C209604E3
:100FEA00740F800520970774132EF8E6FF220E80EF
:030FFA00CF7F00A6
:010FFD0022D1
:10122B00C290C291C292C293D294D295D296D297C7
:01123B002290
:100003000203C4E86480F8E933E83360110460F064
:10001300ED33EC337009E8FCE9FDEAFEEBFF220463
:1000230060DED3EB9FEA9EE99DE8C2E78CF0C2F75E
:1000330095F0400CE8CCF8E9CDF9EACEFAEBCFFB2A
:1000430012038F85D0F05804700320D5B3E80470F1
:10005300075002B2D50203CE92D5EC0460F7E4CC8C
:10006300C0E0C398F8603B94186008400DD0E0FBF3
:100073000203A6E4FBFAC9FC8028E830E406E4C9DD
:10008300FBE4CAFCE830E305E4C9CACBFCE8540747
:100093006010F8C3E913F9EA13FAEB13FBEC13FC52
:1000A300D8F130F52FC3E49CFCEF9BFFEE9AFEEDF5
:1000B30099FDD0E0FBEF4E4D4C701222DB0302039F
:1000C300CBEC2CFCEF33FFEE33FEED33FDED30E7ED
:1000D300EB0203A6EF2BFFEE3AFEED39FDD0E0FB7A
:1000E30050130BBB00030203CEED13FDEE13FEEF23
:0800F30013FFEC13FC0203A64D
:1000FB00EC4D6011E8497017ED33EC3304600DE4FF
:10010B00FCFFFEFD22E933E8330470F80203C4124E
:10011B00038F58046009E4CC24815006285009024F
:10012B0003CE2840030203CBC0E0EB4A7044B980F6
:10013B0006D0E0FB0203BAEF4E701CBD8008EBFF4C
:10014B00EAFEE9FD80EBE98DF0A4FEE5F00201E4A7
:10015B00E9CDF9EAFEEBFFEF89F0A4FCE5F0CE89DF
:10016B00F0A42EFFE435F0CD89F0A42DFEE435F09C
:10017B008067EF4E7005BD80D780C3EF8BF0A4ACCA
:10018B00F0EE8BF0A42CFCE435F0F8EF8AF0A42C05
:10019B00E5F038FCE433CB8DF0A42CFCE5F03BF818
:1001AB00EE8AF0A42CFCE5F038F8E433CF89F0A408
:1001BB002CFCE5F038CF3400CE89F0A42FFFE5F00E
:1001CB003EFEE433C98DF0A42EFEE5F039CD8AF066
:1001DB00A42FFFE5F03EFEE43DFD33D0E0FB5007DE
:1001EB000BBB000F0203CEEC2CFCEF33FFEE33FE08
:0601FB00ED33FD0203A636
:100201000203CEEC5D046005E8590470030203C4E7
:1002110012038F580460F6EC4860F2EC7004FDFEA6
:10022100FF22C860DB2481C85009C39860025006D0
:100231000203CB9850CAF582E9294B4A7005AB827B
:100241000203BA75F0007C1A7880C3EF9BEE9AED39
:1002510099400DC3EF9BFFEE9AFEED99FDE842F048
:10026100DC23ACF0D0E0FFD0E0FED0E0FDAB82209B
:10027100E7101BEB60BAEC2CFCEF33FFEE33FEED25
:1002810033FD0203A6E803F830E705C0F075F0007E
:10029100EF2FFFEE33FEED33FD40B830E7C280AA09
:1002A10074F8CC6480CCC86480C8F58204604FC304
:1002B100EB9FF5F0EA9E42F0E99D42F0E89C45F0A3
:1002C100603C501DE5825FFFE582D313CB5BCBF42D
:1002D1002B5582FB50280ABA002409B90020088056
:1002E1001DE5825BFBE582D313CF5FCFF4C3132FF0
:1002F1005582FF50090EBE00050DBD00010CC3EB78
:100301009FF5F0EA9E42F0E99D42F0E89C45F060DD
:0903110007CC4820E701B3EC22FF
:10031A0075F020800E75F010800575F0087D007E5E
:10032A00007F003392D530D5031205CFEC3340104D
:10033A00EF33FFEE33FEED33FDEC33FCD5F0ED2267
:0E034A00E5F0247EA2D513CC92E7CDCEFF22A3
:10035800EDD2E7CD33EC3392D524814006E4FFFE9D
:10036800FDFC22FCE4CFCECDCC24E0501174FF80FC
:10037800EDC3CC13CCCD13CDCE13CECF13CF047099
:07038800F030D5DE0205CFC5
:1007B3008F358E348D338C32E4FFFE7D807C3FABEE
:1007C30035AA34A933A8321202A17009AF35AE3469
:1007D300AD33AC3222AF35AE34AD33AC321203D9C4
:1007E300FBAF39AE38AD37AC361203D9FFBF0108C2
:1007F300E4FFFE7D807C3F22EF64046022EB64040F
:10080300601DBB0127E4FFFEFDFCAB39AA38A93705
:10081300A8361202A160084006E4FFFEFDFC227424
:10082300FFF539F538F537F5360208C1E4F53AF541
:100833003BFFFEFDFCAB35AA34A933A8321202A15B
:10084300504BAF39AE38AD37AC361203588E3A8FB2
:100853003BAC3AAD3BEC12031FC8ECC8C9EDC9CAA7
:10086300EECACBEFCBAF39AE38AD37AC361200069C
:10087300E4FBFAF9F81202A170A5AF35AE34AD333B
:10088300AC321203F38F358E348D338C32AF35AEE9
:1008930034AD33AC321206B2AB39AA38A937A83615
:1008A3001200FB120C8C8F398E388D378C36E53B5A
:1008B30030E00B1203F38F398E388D378C36AF3916
:0708C300AE38AD37AC362260
:10038F00E9D2E7C933E833F892D5EDD2E7CD33ECB4
:07039F0033FC5002B2D5222D
:1003A600EC30E7100FBF000C0EBE00080DBD0004B8
:1003B6000BEB6014A2D5EB13FCED92E7FD2274FF64
:1003C600FCFDFEFF22E480F8A2D574FF13FC7D80BD
:0303D600E480EFD1
:1003D900ED33EC33601004700FED547F7005740237
:0A03E90092E0227404220422E422B0
:1003F300ED33EC33600A047003BD8004ECB2E7FC18
:0104030022D6
:100C540033DA929E35B16011377FE5FE39218489FC
:100C64003AAEC3FF3C1D955B3D6358473E75FDF0AE
:100C74003F3172183F800000C2D50203CE0203C484
:100C8400BD80FA50F30203CBED33EC330460F17B07
:100C94003B7AAA79B8783F1200FBED33EC3392D556
:100CA400247B5011A2D570DB500BED4480240450FA
:100CB40004A2D580CEEFFBEEFAEDF9ECF81203585E
:100CC400EFF582F404FC12032412000AC082900C93
:100CD400547409120413ED33CC33D0F092D525F0BB
:0A0CE400A2D57001C313CC13FD224A
:10067E003E9248DA3ECCCCCD3F2AAAAB40000000D9
:10068E003F8000003F9837F03FB504F33FD744FC5E
:10069E003E3172173EB172173F0515913EDE5BD9A2
:1006AE00D2008002C200EDD2E7F8CD33EC330470F5
:1006BE000BBD800592D50203CE0203C440FBD314BA
:1006CE0060F2F5F07C3FEE7A00C39496C8948B40AE
:1006DE00230AC89469C8941A401A0AC89468C89420
:1006EE001F40110AC8945AC89425400805F07A0094
:1006FE00CDC2E7CDC0F08C3C8D3D8E3E8F3FEA23C0
:10070E0023C0E0248EF582E43406F5831205ED1243
:10071E00000AECC0E0EDC0E0EEC0E0EFC0E0120574
:10072E00DDA83CA93DAA3EAB3F120006D0E0FBD0AF
:10073E00E0FAD0E0F9D0E0B2E7F81202048C3C8D7A
:10074E003D8E3E8F3F90067E7403120404A83CA992
:10075E003DAA3EAB3F1200FBD0E0600F249AF5821B
:10076E00E43406F5831205ED12000A8C3C8D3D8EA5
:10077E003E8F3FD0E0C3947FFDE49400FC12031F34
:10078E007B187A727931783F1200FBA83CA93DAAFA
:10079E003EAB3F12000A30000B7BD97A5B79DE78D4
:0507AE003E1200FB22D9
:10040400C0E0EFFBEEFAEDF9ECF81200FBD0E0F5FA
:10041400F0EFFBEEFAEDF9ECF81205DDA3A3A3A3CC
:10042400E8C0E0E9C0E0EAC0E0EBC0E0C0F01200E0
:10043400FB1205EDA3A3A3A312000AD0F0D0E0FBA6
:0D044400D0E0FAD0E0F9D0E0F8D5F0D422F5
:03000000020D7C72
:0C0D7C00787FE4F6D8FD7581BC020DC341
:10045100BB010689828A83E0225002E722BBFE02A9
:09046100E32289828A83E49322DC
:10046A00BB010CE58229F582E5833AF583E0225047
:10047A0006E92582F8E622BBFE06E92582F8E22291
:0D048A00E58229F582E5833AF583E49322AB
:10049700F8BB010DE58229F582E5833AF583E8F09B
:1004A700225006E92582C8F622BBFE05E92582C847
:0204B700F2222F
:1004B900EF8DF0A4A8F0CF8CF0A428CE8DF0A42E57
:0204C900FE2211
:1004CB00C2D5EC30E709B2D5E4C39DFDE49CFCEE4C
:1004DB0030E715B2D5E4C39FFFE49EFE120629C395
:1004EB00E49DFDE49CFC800312062930D507C3E490
:0604FB009FFFE49EFE22BB
:1005010075F008758200EF2FFFEE33FECD33CDCCB1
:1005110033CCC58233C5829BED9AEC99E582984034
:100521000CF582EE9BFEED9AFDEC99FC0FD5F0D611
:10053100E4CEFBE4CDFAE4CCF9A88222B800C1B93B
:100541000059BA002DEC8BF084CFCECDFCE5F0CB79
:10055100F97818EF2FFFEE33FEED33FDEC33FCEBB2
:1005610033FB10D703994004EB99FB0FD8E5E4F96D
:10057100FA227818EF2FFFEE33FEED33FDEC33FC5A
:10058100C933C910D7059BE99A4007EC9BFCE99A4E
:10059100F90FD8E0E4C9FAE4CCFB2275F010EF2F93
:1005A100FFEE33FEED33FDCC33CCC833C810D70793
:1005B1009BEC9AE899400AED9BFDEC9AFCE899F8CE
:0E05C1000FD5F0DAE4CDFBE4CCFAE4C8F92261
:0E05CF00C3E49FFFE49EFEE49DFDE49CFC223D
:1005DD00E493FC740193FD740293FE740393FF2264
:1005ED00E493F8740193F9740293FA740393FB2264
:1011CF00E4FFFE120451600C0FEF70010E09E9707D
:0511DF00F20A80EF227E
:100A69008B218A228923AB21AA22A923120451FFAF
:100A79001211E4500D74012523F523E43522F522E2
:100A890080E4D200AB21AA22A923120451FF642BCE
:100A99006004EFB42D1BAB210523E523AA227002C4
:100AA900052214F9120451642D6003D38001C39205
:100AB90000E4F524F525AB21AA22A923120451FF4C
:100AC90012123C5036AB21AA22A923120451FF333A
:100AD90095E0FEEF24D0FBEE34FFFAAE24AF257C7F
:100AE900007D0A1204B9EF2BF525EE3AF5247401BD
:100AF9002523F523E43522F52280BB300006AE24F8
:0E0B0900AF258009C3E49525FFE49524FE2264
:1005FD00EF4E6012EF60010EEDBB010B89828A8315
:10060D00F0A3DFFCDEFA2289F05007F709DFFCA921
:0C061D00F022BBFEFCF309DFFCA9F02278
:100D8800020EE8E493A3F8E493A34003F68001F28B
:100D980008DFF48029E493A3F85407240CC8C3336C
:100DA800C4540F4420C8834004F456800146F6DF3B
:100DB800E4800B0102040810204080900FFEE47EBE
:100DC800019360BCA3FF543F30E509541FFEE49330
:100DD800A360010ECF54C025E060A840B8E493A3F7
:100DE800FAE493A3F8E493A3C8C582C8CAC583CA22
:100DF800F0A3C8C582C8CAC583CADFE9DEE780BEDA
:01103A0000B5
:10062900BC000BBE0029EF8DF084FFADF022E4CCB5
:10063900F875F008EF2FFFEE33FEEC33FCEE9DEC7E
:10064900984005FCEE9DFE0FD5F0E9E4CEFD22EDC4
:10065900F8F5F0EE8420D21CFEADF075F008EF2F0E
:10066900FFED33FD4007985006D5F0F222C398FDFF
:050679000FD5F0EA229C
:0F123C00EFC394304007EF943A50028001C32271
:1011E400EFC394094005EF940E4003BF2003D3805E
:0311F40001C32212
:00000001FF
