:0A13110048692074686572652100C8
:1010F700026F00000BAA4D617468204572726F720F
:101107000002A8000002B5000002B700000CB94DAC
:10111700656D6F7279204F76657200046600000076
:1011270000046B00000000046100000000016A0079
:10104300120FDF12117E1212F7E4FDFF1212217B41
:10105300FF7A1379111211DE7FE87E031212011257
:1010630013391210A38F6AEF60F86443602A1213D6
:10107300057FFA7E001212017870E62485F8A66ACD
:10108300787006E618700106E56AB43DD5120DEBDB
:1010930012067E120FDF80CA121339120FDF80C2CD
:100DEB00E4FFFE786FF608F67870E62485F8E66483
:100DFB002B603B7870E62485F8E6642D60307870C4
:100E0B00E62485F8E6645860257870E62485F8E6D4
:100E1B00643A601A7870E62485F8E6FD7870E6246B
:100E2B0071F8A605787006E61870BD0680BA787062
:100E3B00E62485F8E6F565787006E6187001067805
:100E4B006FE6FE08E6FF7870E62485F8E6643D6001
:100E5B001C7870E62485F8E6FD7870E6C39F247B4A
:0D0E6B00F8A605787006E61870DC0680D940
:010E78002257
:10067E00E4F521F522FB7A007971120AC2AC06ADBF
:10068E0007EC1203308F698E688D678C667B007A5B
:10069E0000797B120AC2AC06AD07EC1203308F6EE6
:1006AE008E6D8D6C8C6BE56524D3602124F36047D1
:1006BE0024E2602E242D706EAF6EAE6DAD6CAC6B01
:1006CE00AB69AA68A967A86612000A804FAB6EAA2A
:1006DE006DA96CA86BAF69AE68AD67AC661200060B
:1006EE00803AAF6EAE6DAD6CAC6BAB69AA68A967A4
:1006FE00A8661200FB8025E4FFFEFDFCAB6EAA6D22
:10070E00A96CA86B1202A1601DAB6EAA6DA96CA894
:10071E006BAF69AE68AD67AC661202048F648E6310
:10072E008D628C61800778A87600087601AF64AE82
:10073E0063AD62AC617A0079C5120A09E4F521F560
:10074E00227B007A0079C512128BD3E5229FE52118
:10075E009E502574C52522F8E6FF642F6009EF64CC
:10076E002B6004EFB42D0778B776000876010522CA
:10077E00E52270CD052180C9E565B42F1BAF64AEAF
:10078E0063AD62AC61752700752803120C148F647B
:10079E008E638D628C618000120B707B007A007903
:0F07AE00C512128B7D007B007A0079C50205FD14
:100B7000E4FFFEFDFCAB64AA63A962A8611202A1B6
:100B8000503678A9E61846702F78B8E618467028CF
:100B9000AF64AE63AD62AC6112031A8F648E638D75
:100BA000628C617A00799E120A097D01E4FF1213BA
:100BB000257F2D121305803CE4FFFEFDFCAB64AAEB
:100BC00063A962A8611202A1403378A9E6184670B1
:100BD0002C78B8E618467025AF64AE63AD62AC61A0
:100BE000FB7A00799EF52A752B03120A117D01E428
:100BF000FF1213257B007A00799E0211DE78B8E699
:100C000064011846700A78A9E6184670030212C5F6
:040C10001212B322E7
:1012B3001212F7E4FDFF1213257B007A0079AA02CC
:0212C30011DE3A
:1012C5001212F7E4FDFF1213257B007A0079B902AB
:0212D50011DE28
:080C14008F268E258D248C2310
:100C1C00752900752A017B017A00D3EB9528E5270D
:100C2C006480F8EA6480985016AE29AF2A7C007D67
:100C3C000A1204B98E298F2A0BBB00010A80DBAC87
:100C4C0029AD2AEC120330AB26AA25A924A823121D
:100C5C0000FB120369AB07AA067C007D0A1204CBC9
:100C6C00C3ED9405EC6480948040050BBB00010A35
:100C7C00AE02AF03AD07AC06EC120330C004C005E6
:100C8C00C006C007AC29AD2AEC120330A804A90594
:100C9C00AA06AB07D007D006D005D0041202048FE9
:070CAC00268E258D248C2308
:010CB300221E
:100FDF007B007A00798512128B7D007B007A007975
:100FEF00851205FD7B007A00797112128B7D007BD3
:100FFF00007A0079711205FD7B007A00797B12125D
:10100F008B7D007B007A00797B1205FD7B007A00D7
:10101F00799E12128B7D007B007A00799E1205FD5E
:10102F0075656EE4786FF608F678A8F608F678B767
:04103F00F608F62297
:060F05008B3D8A3E893F8E
:100F0B00E4F540F541ED24FFF543EC34FFF542C326
:100F1B00E5419543E5426480F8E54064809850468E
:100F2B00AB3DAA3EA93F85418285408312046AFFEF
:100F3B003395E0F5448F4585438285428312046ADD
:100F4B00854182854083120497854382854283E5E0
:100F5B00451204970541E54170020540E5431543F1
:060F6B0070AD154280A9E3
:010F7100225D
:0A0CB4008E348F358B368A3789386D
:100CBE00E4F53BF53CE53545346039AE34AF357C73
:100CCE00007D0A1204CBED2430FFAB36AA37A938CB
:100CDE00053CE53CAC3B7002053B14F5828C83EF82
:100CEE00120497AE34AF357C007D0A1204CB8E34DD
:100CFE008F3580C1C3E53C953AE5396480F8E53B14
:100D0E00648098501CAB36AA37A938053CE53CAE3A
:100D1E003B7002053B14F5828E837430120497806B
:100D2E00D3AB36AA37A938AD3CAC3B120F05AB3668
:100D3E00AA37A938853C82853B83E4120497AE3BE3
:020D4E00AF3CB8
:010D50002280
:080A09007B00752A00752B0328
:0E0A11008F268E258D248C238B278A288929F9
:100A1F001203698E2C8F2DAC2CAD2DEC120330A848
:100A2F0004A905AA06AB07AF26AE25AD24AC231249
:100A3F0000068F318E308D2F8C2EAB27AA28A92937
:100A4F00E4F539F53AAF2DAE2C120CB48E328F334C
:100A5F00E52B452A605CAB27AA28A9298F828E83B4
:100A6F00742E120497AC2AAD2BEC1203308F3B8EF1
:100A7F003A8D398C387F007E007D207C411208F240
:100A8F00AB31AA30A92FA82E1200FB8F318E308DDB
:100A9F002F8C2E120369AB27E5292533F9E528356D
:100AAF0032FAE92401F9E43AFA852A39852B3A1208
:020ABF000CB475
:010AC1002212
:0312760012123E13
:10127900D2A27F1E7E0012132FC2A27F327E0002ED
:02128900132F21
:10123E00EF1392A4EFC3131392A5EF1313543F139E
:0C124E0092A6EF131313541F1392A72253
:10125A008F26ED7004C2A08002D2A0E526C4540FE6
:0C126A00FF121276AF2612123E0212791B
:0E12F700E4FD7F0112125A7F057E00021201F3
:10117E00C2A0C2A1C2A27F031212767F0A7E001203
:10118E00132F7F0212123E1212797F0A7E00121363
:10119E002FE4FD7F2812125AE4FD7F0C12125A0220
:0211AE0012F736
:10122100ED7007EF2480F5238005EF24C0F5237FBF
:0D123100057E00121201E4FDAF2302125AE7
:0C1305007D0112125A7F057E0002132F9A
:1011DE008B238A248925AB23AA24A925120451FF27
:1011EE00601012130574012525F525E43524F52428
:0311FE0080E42268
:080F72008F498E488D478C4623
:100F7A00E4F54BE54BC3954A5039E47B0AFAF9F894
:100F8A00AF49AE48AD47AC4612053DAF038F60AFDF
:100F9A0049AE48AD47AC46E47B0AFAF9F812053D7A
:100FAA008F498E488D478C46744C254BF8A66005B0
:100FBA004B80C0E4F54BE54BC3954A5017C3E54A4D
:100FCA00954BFF744B2FF8E62430FF7D0112125A1D
:040FDA00054B80E261
:010FDE0022F0
:0A131B00121221E4FD7F0F02125AA6
:0A132500121221E4FD7F0E02125A9D
:091339001212F7E4FDFF02131B80
:10120100E4FDFCC3ED9FEC9E5015E4FBFA0BBB0023
:0F121100010AEB647D4A70F50DBD00010C80E40D
:0112200022AB
:0A132F00EF1F70011E144E70F7222C
:1011370010083738393A343536583132332D433081
:021147003D2B3E
:10114A002095047F0180027F002094047E018002A2
:10115A007E00EE4FFF2096047E0180027E00EE4F55
:10116A00FF2097047E0180027E00EE4F60037F011C
:04117A00227F0022AE
:1011B000D290D291D292D293EFFD7C006401700361
:1011C000C29022ED64024C7003C29122ED64034C84
:0E11D0007003C29222ED64044C7002C293229E
:1010A300C290C291C292C29312114AEF640170417D
:1010B3007F01FE12120112114AEF640170337E01A7
:1010C300EEC39405748094805027AF061211B020AC
:1010D300940474078013209504740B800C209604E9
:1010E300740F800520970774132EF8E6FF220E80F5
:0310F300CF7F00AC
:0110F60022D7
:1012D700C290C291C292C293D294D295D296D2971B
:0112E70022E4
:100003000203D5E86480F8E933E83360110460F053
:10001300ED33EC337009E8FCE9FDEAFEEBFF220463
:1000230060DED3EB9FEA9EE99DE8C2E78CF0C2F75E
:1000330095F0400CE8CCF8E9CDF9EACEFAEBCFFB2A
:100043001203A085D0F05804700320D5B3E80470E0
:10005300075002B2D50203DF92D5EC0460F7E4CC7B
:10006300C0E0C398F8603B94186008400DD0E0FBF3
:100073000203B7E4FBFAC9FC8028E830E406E4C9CC
:10008300FBE4CAFCE830E305E4C9CACBFCE8540747
:100093006010F8C3E913F9EA13FAEB13FBEC13FC52
:1000A300D8F130F52FC3E49CFCEF9BFFEE9AFEEDF5
:1000B30099FDD0E0FBEF4E4D4C701222DB0302039F
:1000C300DCEC2CFCEF33FFEE33FEED33FDED30E7DC
:1000D300EB0203B7EF2BFFEE3AFEED39FDD0E0FB69
:1000E30050130BBB00030203DFED13FDEE13FEEF12
:0800F30013FFEC13FC0203B73C
:1000FB00EC4D6011E8497017ED33EC3304600DE4FF
:10010B00FCFFFEFD22E933E8330470F80203D5123D
:10011B0003A058046009E4CC24815006285009023E
:10012B0003DF2840030203DCC0E0EB4A7044B980D4
:10013B0006D0E0FB0203CBEF4E701CBD8008EBFF3B
:10014B00EAFEE9FD80EBE98DF0A4FEE5F00201E4A7
:10015B00E9CDF9EAFEEBFFEF89F0A4FCE5F0CE89DF
:10016B00F0A42EFFE435F0CD89F0A42DFEE435F09C
:10017B008067EF4E7005BD80D780C3EF8BF0A4ACCA
:10018B00F0EE8BF0A42CFCE435F0F8EF8AF0A42C05
:10019B00E5F038FCE433CB8DF0A42CFCE5F03BF818
:1001AB00EE8AF0A42CFCE5F038F8E433CF89F0A408
:1001BB002CFCE5F038CF3400CE89F0A42FFFE5F00E
:1001CB003EFEE433C98DF0A42EFEE5F039CD8AF066
:1001DB00A42FFFE5F03EFEE43DFD33D0E0FB5007DE
:1001EB000BBB000F0203DFEC2CFCEF33FFEE33FEF7
:0601FB00ED33FD0203B725
:100201000203DFEC5D046005E8590470030203D5C5
:100211001203A0580460F6EC4860F2EC7004FDFE95
:10022100FF22C860DB2481C85009C39860025006D0
:100231000203DC9850CAF582E9294B4A7005AB826A
:100241000203CB75F0007C1A7880C3EF9BEE9AED28
:1002510099400DC3EF9BFFEE9AFEED99FDE842F048
:10026100DC23ACF0D0E0FFD0E0FED0E0FDAB82209B
:10027100E7101BEB60BAEC2CFCEF33FFEE33FEED25
:1002810033FD0203B7E803F830E705C0F075F0006D
:10029100EF2FFFEE33FEED33FD40B830E7C280AA09
:1002A10074F8CC6480CCC86480C8F58204604FC304
:1002B100EB9FF5F0EA9E42F0E99D42F0E89C45F0A3
:1002C100603C501DE5825FFFE582D313CB5BCBF42D
:1002D1002B5582FB50280ABA002409B90020088056
:1002E1001DE5825BFBE582D313CF5FCFF4C3132FF0
:1002F1005582FF50090EBE00050DBD00010CC3EB78
:100301009FF5F0EA9E42F0E99D42F0E89C45F060DD
:0903110007CC4820E701B3EC22FF
:10031A00ED33EC33600A047003BD8004ECB2E7FCF1
:01032A0022B0
:10032B0075F020800E75F010800575F0087D007E4D
:10033B00007F003392D530D5031205CFEC3340103C
:10034B00EF33FFEE33FEED33FDEC33FCD5F0ED2256
:0E035B00E5F0247EA2D513CC92E7CDCEFF2292
:10036900EDD2E7CD33EC3392D524814006E4FFFE8C
:10037900FDFC22FCE4CFCECDCC24E0501174FF80EB
:10038900EDC3CC13CCCD13CDCE13CECF13CF047088
:07039900F030D5DE0205CFB4
:1008F2008F378E368D358C34E4FFFE7D807C3FABA6
:1009020037AA36A935A8341202A17009AF37AE361C
:10091200AD35AC3422AF37AE36AD35AC341203EA66
:10092200FBAF3BAE3AAD39AC381203EAFFBF010868
:10093200E4FFFE7D807C3F22EF64046022EB6404CE
:10094200601DBB0127E4FFFEFDFCAB3BAA3AA939BF
:10095200A8381202A160084006E4FFFEFDFC2274E2
:10096200FFF53BF53AF539F538020A00E4F53CF5B6
:100972003DFFFEFDFCAB37AA36A935A8341202A111
:10098200504BAF3BAE3AAD39AC381203698E3C8F57
:100992003DAC3CAD3DEC120330C8ECC8C9EDC9CA50
:1009A200EECACBEFCBAF3BAE3AAD39AC3812000654
:1009B200E4FBFAF9F81202A170A5AF37AE36AD35F5
:1009C200AC3412031A8F378E368D358C34AF37AE76
:1009D20036AD35AC341207F1AB3BAA3AA939A83887
:1009E2001200FB120D898F3B8E3A8D398C38E53D12
:1009F20030E00B12031A8F3B8E3A8D398C38AF3BA5
:070A0200AE3AAD39AC382219
:1003A000E9D2E7C933E833F892D5EDD2E7CD33ECA3
:0703B00033FC5002B2D5221C
:1003B700EC30E7100FBF000C0EBE00080DBD0004A7
:1003C7000BEB6014A2D5EB13FCED92E7FD2274FF53
:1003D700FCFDFEFF22E480F8A2D574FF13FC7D80AC
:0303E700E480EFC0
:1003EA00ED33EC33601004700FED547F7005740226
:0A03FA0092E0227404220422E4229F
:100D510033DA929E35B16011377FE5FE39218489FE
:100D61003AAEC3FF3C1D955B3D6358473E75FDF0B0
:100D71003F3172183F800000C2D50203DF0203D564
:100D8100BD80FA50F30203DCED33EC330460F17BF8
:100D91003B7AAA79B8783F1200FBED33EC3392D558
:100DA100247B5011A2D570DB500BED4480240450FC
:100DB10004A2D580CEEFFBEEFAEDF9ECF81203694F
:100DC100EFF582F404FC12033512000AC082900D83
:100DD100517409120413ED33CC33D0F092D525F0C0
:0A0DE100A2D57001C313CC13FD224C
:1007BD003E9248DA3ECCCCCD3F2AAAAB4000000099
:1007CD003F8000003F9837F03FB504F33FD744FC1E
:1007DD003E3172173EB172173F0515913EDE5BD962
:1007ED00D2008002C200EDD2E7F8CD33EC330470B5
:1007FD000BBD800592D50203DF0203D540FBD31458
:10080D0060F2F5F07C3FEE7A00C39496C8948B406D
:10081D00230AC89469C8941A401A0AC89468C894DF
:10082D001F40110AC8945AC89425400805F07A0053
:10083D00CDC2E7CDC0F08C3E8D3F8E408F41EA2377
:10084D0023C0E024CDF582E43407F5831205ED12C3
:10085D00000AECC0E0EDC0E0EEC0E0EFC0E0120534
:10086D00DDA83EA93FAA40AB41120006D0E0FBD067
:10087D00E0FAD0E0F9D0E0B2E7F81202048C3E8D38
:10088D003F8E408F419007BD7403120404A83EA90A
:10089D003FAA40AB411200FBD0E0600F24D9F58296
:1008AD00E43407F5831205ED12000A8C3E8D3F8E60
:1008BD00408F41D0E0C3947FFDE49400FC120330DF
:1008CD007B187A727931783F1200FBA83EA93FAAB6
:1008DD0040AB4112000A30000B7BD97A5B79DE7890
:0508ED003E1200FB2299
:10040400C0E0EFFBEEFAEDF9ECF81200FBD0E0F5FA
:10041400F0EFFBEEFAEDF9ECF81205DDA3A3A3A3CC
:10042400E8C0E0E9C0E0EAC0E0EBC0E0C0F01200E0
:10043400FB1205EDA3A3A3A312000AD0F0D0E0FBA6
:0D044400D0E0FAD0E0F9D0E0F8D5F0D422F5
:03000000020E7974
:0C0E7900787FE4F6D8FD7581CE020EC033
:10045100BB010689828A83E0225002E722BBFE02A9
:09046100E32289828A83E49322DC
:10046A00BB010CE58229F582E5833AF583E0225047
:10047A0006E92582F8E622BBFE06E92582F8E22291
:0D048A00E58229F582E5833AF583E49322AB
:10049700F8BB010DE58229F582E5833AF583E8F09B
:1004A700225006E92582C8F622BBFE05E92582C847
:0204B700F2222F
:1004B900EF8DF0A4A8F0CF8CF0A428CE8DF0A42E57
:0204C900FE2211
:1004CB00C2D5EC30E709B2D5E4C39DFDE49CFCEE4C
:1004DB0030E715B2D5E4C39FFFE49EFE120629C395
:1004EB00E49DFDE49CFC800312062930D507C3E490
:0604FB009FFFE49EFE22BB
:1005010075F008758200EF2FFFEE33FECD33CDCCB1
:1005110033CCC58233C5829BED9AEC99E582984034
:100521000CF582EE9BFEED9AFDEC99FC0FD5F0D611
:10053100E4CEFBE4CDFAE4CCF9A88222B800C1B93B
:100541000059BA002DEC8BF084CFCECDFCE5F0CB79
:10055100F97818EF2FFFEE33FEED33FDEC33FCEBB2
:1005610033FB10D703994004EB99FB0FD8E5E4F96D
:10057100FA227818EF2FFFEE33FEED33FDEC33FC5A
:10058100C933C910D7059BE99A4007EC9BFCE99A4E
:10059100F90FD8E0E4C9FAE4CCFB2275F010EF2F93
:1005A100FFEE33FEED33FDCC33CCC833C810D70793
:1005B1009BEC9AE899400AED9BFDEC9AFCE899F8CE
:0E05C1000FD5F0DAE4CDFBE4CCFAE4C8F92261
:0E05CF00C3E49FFFE49EFEE49DFDE49CFC223D
:1005DD00E493FC740193FD740293FE740393FF2264
:1005ED00E493F8740193F9740293FA740393FB2264
:10128B00E4FFFE120451600C0FEF70010E09E970C0
:05129B00F20A80EF22C1
:100AC2008B238A248925AB23AA24A925120451FF4A
:100AD2001212A0500D74012525F525E43524F524C4
:100AE20080E4D200AB23AA24A925120451FF642B6F
:100AF2006004EFB42D1BAB230525E525AA24700263
:100B0200052414F9120451642D6003D38001C392A9
:100B120000E4F526F527AB23AA24A925120451FFE8
:100B22001212E85036AB23AA24A925120451FF332E
:100B320095E0FEEF24D0FBEE34FFFAAE26AF277C21
:100B4200007D0A1204B9EF2BF527EE3AF52674015F
:100B52002525F525E43524F52480BB300006AE2694
:0E0B6200AF278009C3E49527FFE49526FE2205
:1005FD00EF4E6012EF60010EEDBB010B89828A8315
:10060D00F0A3DFFCDEFA2289F05007F709DFFCA921
:0C061D00F022BBFEFCF309DFFCA9F02278
:100E8500021043E493A3F8E493A34003F68001F230
:100E950008DFF48029E493A3F85407240CC8C3336E
:100EA500C4540F4420C8834004F456800146F6DF3D
:100EB500E4800B01020408102040809010F7E47EC6
:100EC500019360BCA3FF543F30E509541FFEE49332
:100ED500A360010ECF54C025E060A840B8E493A3F9
:100EE500FAE493A3F8E493A3C8C582C8CAC583CA24
:100EF500F0A3C8C582C8CAC583CADFE9DEE780BEDC
:0111490000A5
:10062900BC000BBE0029EF8DF084FFADF022E4CCB5
:10063900F875F008EF2FFFEE33FEEC33FCEE9DEC7E
:10064900984005FCEE9DFE0FD5F0E9E4CEFD22EDC4
:10065900F8F5F0EE8420D21CFEADF075F008EF2F0E
:10066900FFED33FD4007985006D5F0F222C398FDFF
:050679000FD5F0EA229C
:0F12E800EFC394304007EF943A50028001C322C5
:1012A000EFC394094005EF940E4003BF2003D380A1
:0312B00001C32255
:00000001FF
